{
  "contractName": "CompoundBorrower",
  "abi": [
    {
      "inputs": [
        {
          "name": "owner_",
          "type": "address"
        },
        {
          "name": "tokenToBorrow_",
          "type": "address"
        },
        {
          "name": "wethAddress_",
          "type": "address"
        },
        {
          "name": "moneyMarketAddress_",
          "type": "address"
        }
      ],
      "payable": false,
      "stateMutability": "nonpayable",
      "type": "constructor"
    },
    {
      "payable": true,
      "stateMutability": "payable",
      "type": "fallback"
    },
    {
      "anonymous": false,
      "inputs": [
        {
          "indexed": false,
          "name": "comone",
          "type": "string"
        }
      ],
      "name": "Please",
      "type": "event"
    },
    {
      "anonymous": false,
      "inputs": [
        {
          "indexed": false,
          "name": "val",
          "type": "uint256"
        }
      ],
      "name": "How",
      "type": "event"
    },
    {
      "anonymous": false,
      "inputs": [
        {
          "indexed": false,
          "name": "error",
          "type": "uint256"
        },
        {
          "indexed": false,
          "name": "info",
          "type": "uint256"
        },
        {
          "indexed": false,
          "name": "detail",
          "type": "uint256"
        }
      ],
      "name": "Failure",
      "type": "event"
    },
    {
      "constant": false,
      "inputs": [],
      "name": "repay",
      "outputs": [],
      "payable": false,
      "stateMutability": "nonpayable",
      "type": "function"
    }
  ],
  "bytecode": "0x608060405234801561001057600080fd5b506040516080806111ec8339810180604052810190808051906020019092919080519060200190929190805190602001909291908051906020019092919050505033600260006101000a81548173ffffffffffffffffffffffffffffffffffffffff021916908373ffffffffffffffffffffffffffffffffffffffff16021790555083600360006101000a81548173ffffffffffffffffffffffffffffffffffffffff021916908373ffffffffffffffffffffffffffffffffffffffff160217905550826000806101000a81548173ffffffffffffffffffffffffffffffffffffffff021916908373ffffffffffffffffffffffffffffffffffffffff16021790555081600460006101000a81548173ffffffffffffffffffffffffffffffffffffffff021916908373ffffffffffffffffffffffffffffffffffffffff16021790555080600160006101000a81548173ffffffffffffffffffffffffffffffffffffffff021916908373ffffffffffffffffffffffffffffffffffffffff16021790555050505050611044806101a86000396000f300608060405260043610610041576000357c0100000000000000000000000000000000000000000000000000000000900463ffffffff168063402d888314610341575b600080600460009054906101000a900473ffffffffffffffffffffffffffffffffffffffff1691508173ffffffffffffffffffffffffffffffffffffffff1663095ea7b3600160009054906101000a900473ffffffffffffffffffffffffffffffffffffffff167fffffffffffffffffffffffffffffffffffffffffffffffffffffffffffffffff6040518363ffffffff167c0100000000000000000000000000000000000000000000000000000000028152600401808373ffffffffffffffffffffffffffffffffffffffff1673ffffffffffffffffffffffffffffffffffffffff16815260200182815260200192505050602060405180830381600087803b15801561014e57600080fd5b505af1158015610162573d6000803e3d6000fd5b505050506040513d602081101561017857600080fd5b8101908080519060200190929190505050508173ffffffffffffffffffffffffffffffffffffffff1663d0e30db0346040518263ffffffff167c01000000000000000000000000000000000000000000000000000000000281526004016000604051808303818588803b1580156101ee57600080fd5b505af1158015610202573d6000803e3d6000fd5b5050505050600160009054906101000a900473ffffffffffffffffffffffffffffffffffffffff1690508073ffffffffffffffffffffffffffffffffffffffff1663f2b9fdb8600460009054906101000a900473ffffffffffffffffffffffffffffffffffffffff16346040518363ffffffff167c0100000000000000000000000000000000000000000000000000000000028152600401808373ffffffffffffffffffffffffffffffffffffffff1673ffffffffffffffffffffffffffffffffffffffff16815260200182815260200192505050602060405180830381600087803b1580156102f157600080fd5b505af1158015610305573d6000803e3d6000fd5b505050506040513d602081101561031b57600080fd5b810190808051906020019092919050505050610335610358565b61033d610666565b5050005b34801561034d57600080fd5b50610356610a6d565b005b600080600080610366611004565b6000610370611004565b6000600160009054906101000a900473ffffffffffffffffffffffffffffffffffffffff1697508773ffffffffffffffffffffffffffffffffffffffff16635e9a523c6000809054906101000a900473ffffffffffffffffffffffffffffffffffffffff166040518263ffffffff167c0100000000000000000000000000000000000000000000000000000000028152600401808273ffffffffffffffffffffffffffffffffffffffff1673ffffffffffffffffffffffffffffffffffffffff168152602001915050602060405180830381600087803b15801561045357600080fd5b505af1158015610467573d6000803e3d6000fd5b505050506040513d602081101561047d57600080fd5b810190808051906020019092919050505096508773ffffffffffffffffffffffffffffffffffffffff1663b4eae1cb6040518163ffffffff167c0100000000000000000000000000000000000000000000000000000000028152600401602060405180830381600087803b1580156104f457600080fd5b505af1158015610508573d6000803e3d6000fd5b505050506040513d602081101561051e57600080fd5b8101908080519060200190929190505050955061053b3488610e83565b9450945061054d846000015187610e83565b9250925061055a82610f58565b90508773ffffffffffffffffffffffffffffffffffffffff16634b8a35296000809054906101000a900473ffffffffffffffffffffffffffffffffffffffff16836040518363ffffffff167c0100000000000000000000000000000000000000000000000000000000028152600401808373ffffffffffffffffffffffffffffffffffffffff1673ffffffffffffffffffffffffffffffffffffffff16815260200182815260200192505050602060405180830381600087803b15801561062057600080fd5b505af1158015610634573d6000803e3d6000fd5b505050506040513d602081101561064a57600080fd5b8101908080519060200190929190505050505050505050505050565b600080600080600460009054906101000a900473ffffffffffffffffffffffffffffffffffffffff1693508373ffffffffffffffffffffffffffffffffffffffff166370a08231306040518263ffffffff167c0100000000000000000000000000000000000000000000000000000000028152600401808273ffffffffffffffffffffffffffffffffffffffff1673ffffffffffffffffffffffffffffffffffffffff168152602001915050602060405180830381600087803b15801561072c57600080fd5b505af1158015610740573d6000803e3d6000fd5b505050506040513d602081101561075657600080fd5b810190808051906020019092919050505092508373ffffffffffffffffffffffffffffffffffffffff1663a9059cbb600360009054906101000a900473ffffffffffffffffffffffffffffffffffffffff16856040518363ffffffff167c0100000000000000000000000000000000000000000000000000000000028152600401808373ffffffffffffffffffffffffffffffffffffffff1673ffffffffffffffffffffffffffffffffffffffff16815260200182815260200192505050602060405180830381600087803b15801561082e57600080fd5b505af1158015610842573d6000803e3d6000fd5b505050506040513d602081101561085857600080fd5b8101908080519060200190929190505050506000809054906101000a900473ffffffffffffffffffffffffffffffffffffffff1691508173ffffffffffffffffffffffffffffffffffffffff166370a08231306040518263ffffffff167c0100000000000000000000000000000000000000000000000000000000028152600401808273ffffffffffffffffffffffffffffffffffffffff1673ffffffffffffffffffffffffffffffffffffffff168152602001915050602060405180830381600087803b15801561092957600080fd5b505af115801561093d573d6000803e3d6000fd5b505050506040513d602081101561095357600080fd5b810190808051906020019092919050505090508173ffffffffffffffffffffffffffffffffffffffff1663a9059cbb600360009054906101000a900473ffffffffffffffffffffffffffffffffffffffff16836040518363ffffffff167c0100000000000000000000000000000000000000000000000000000000028152600401808373ffffffffffffffffffffffffffffffffffffffff1673ffffffffffffffffffffffffffffffffffffffff16815260200182815260200192505050602060405180830381600087803b158015610a2b57600080fd5b505af1158015610a3f573d6000803e3d6000fd5b505050506040513d6020811015610a5557600080fd5b81019080805190602001909291905050505050505050565b6000803373ffffffffffffffffffffffffffffffffffffffff16600360009054906101000a900473ffffffffffffffffffffffffffffffffffffffff1673ffffffffffffffffffffffffffffffffffffffff16141515610acc57600080fd5b6000809054906101000a900473ffffffffffffffffffffffffffffffffffffffff1691508173ffffffffffffffffffffffffffffffffffffffff1663095ea7b3600160009054906101000a900473ffffffffffffffffffffffffffffffffffffffff167fffffffffffffffffffffffffffffffffffffffffffffffffffffffffffffffff6040518363ffffffff167c0100000000000000000000000000000000000000000000000000000000028152600401808373ffffffffffffffffffffffffffffffffffffffff1673ffffffffffffffffffffffffffffffffffffffff16815260200182815260200192505050602060405180830381600087803b158015610bd557600080fd5b505af1158015610be9573d6000803e3d6000fd5b505050506040513d6020811015610bff57600080fd5b810190808051906020019092919050505050600160009054906101000a900473ffffffffffffffffffffffffffffffffffffffff1690508073ffffffffffffffffffffffffffffffffffffffff1663abdb5ea86000809054906101000a900473ffffffffffffffffffffffffffffffffffffffff167fffffffffffffffffffffffffffffffffffffffffffffffffffffffffffffffff6040518363ffffffff167c0100000000000000000000000000000000000000000000000000000000028152600401808373ffffffffffffffffffffffffffffffffffffffff1673ffffffffffffffffffffffffffffffffffffffff16815260200182815260200192505050602060405180830381600087803b158015610d1a57600080fd5b505af1158015610d2e573d6000803e3d6000fd5b505050506040513d6020811015610d4457600080fd5b8101908080519060200190929190505050508073ffffffffffffffffffffffffffffffffffffffff1663f3fef3a3600460009054906101000a900473ffffffffffffffffffffffffffffffffffffffff167fffffffffffffffffffffffffffffffffffffffffffffffffffffffffffffffff6040518363ffffffff167c0100000000000000000000000000000000000000000000000000000000028152600401808373ffffffffffffffffffffffffffffffffffffffff1673ffffffffffffffffffffffffffffffffffffffff16815260200182815260200192505050602060405180830381600087803b158015610e3b57600080fd5b505af1158015610e4f573d6000803e3d6000fd5b505050506040513d6020811015610e6557600080fd5b810190808051906020019092919050505050610e7f610666565b5050565b6000610e8d611004565b600080600080610ea588670de0b6b3a7640000610f79565b9350935060006019811115610eb657fe5b846019811115610ec257fe5b141515610ee75783602060405190810160405280600081525080905095509550610f4d565b610ef18388610fce565b9150915060006019811115610f0257fe5b826019811115610f0e57fe5b141515610f335781602060405190810160405280600081525080905095509550610f4d565b600060206040519081016040528083815250809050955095505b505050509250929050565b6000670de0b6b3a76400008260000151811515610f7157fe5b049050919050565b600080600080851415610f955760008080905092509250610fc6565b8385029050838582811515610fa657fe5b04141515610fbe576003600080905092509250610fc6565b600081925092505b509250929050565b6000806000831415610fea576005600080905091509150610ffd565b60008385811515610ff757fe5b04915091505b9250929050565b6020604051908101604052806000815250905600a165627a7a72305820cf06e29313c1d7d5f58a4abcb05c306560e2444d003f27c0260c7677048e62b50029",
  "source": "pragma solidity ^0.4.24;\n\nimport \"./EIP20Interface.sol\";\nimport \"./WrappedEtherInterface.sol\";\nimport \"./MoneyMarketAccountInterface.sol\";\nimport \"./Exponential.sol\";\n\ncontract CompoundBorrower is Exponential {\n  address borrowedTokenAddress;\n  address moneyMarketAddress;\n  address creator;\n  address owner;\n  address wethAddress;\n\n  constructor (address owner_, address tokenToBorrow_, address wethAddress_, address moneyMarketAddress_) public {\n    creator = msg.sender;\n    owner = owner_;\n    borrowedTokenAddress = tokenToBorrow_;\n    wethAddress = wethAddress_;\n    moneyMarketAddress = moneyMarketAddress_;\n  }\n\n  event Please(string comone);\n  event How(uint val);\n\n  // turn all received ether into weth and fund it to compound\n  function () payable public {\n    WrappedEtherInterface weth = WrappedEtherInterface(wethAddress);\n    weth.approve(moneyMarketAddress, uint(-1));\n    weth.deposit.value(msg.value)();\n\n    MoneyMarketAccountInterface compoundMoneyMarket = MoneyMarketAccountInterface(moneyMarketAddress);\n    compoundMoneyMarket.supply(wethAddress, msg.value);\n\n    borrow();\n    /*   // this contract will now hold borrowed tokens, sweep them to owner */\n    giveTokensToOwner();\n  }\n\n  function borrow() private {\n    // find value of token in eth from oracle\n    MoneyMarketAccountInterface compoundMoneyMarket = MoneyMarketAccountInterface(moneyMarketAddress);\n    uint assetPrice = compoundMoneyMarket.assetPrices(borrowedTokenAddress);\n\n    uint collateralRatio = compoundMoneyMarket.collateralRatio();\n\n    (Error err1, Exp memory possibleTokens) = getExp(msg.value, assetPrice);\n    (Error err2, Exp memory safeTokens) = getExp(possibleTokens.mantissa, collateralRatio);\n\n    uint amountToBorrow = truncate(safeTokens);\n    compoundMoneyMarket.borrow(borrowedTokenAddress, amountToBorrow);\n  }\n\n  // this contract must receive the tokens to repay before this function will succeed\n  function repay() public {\n    require(owner == msg.sender);\n\n    EIP20Interface borrowedToken = EIP20Interface(borrowedTokenAddress);\n    borrowedToken.approve(moneyMarketAddress, uint(-1));\n\n    MoneyMarketAccountInterface compoundMoneyMarket = MoneyMarketAccountInterface(moneyMarketAddress);\n    compoundMoneyMarket.repayBorrow(borrowedTokenAddress, uint(-1));\n    compoundMoneyMarket.withdraw(wethAddress, uint(-1));\n\n    giveTokensToOwner();\n    /* selfDestructIfEmpty(); and send to Owner*/\n  }\n\n  function giveTokensToOwner() private {\n    EIP20Interface weth = EIP20Interface(wethAddress);\n    uint wethBalance = weth.balanceOf(address(this));\n    weth.transfer(owner, wethBalance);\n\n    EIP20Interface borrowedToken = EIP20Interface(borrowedTokenAddress);\n    uint borrowedTokenBalance = borrowedToken.balanceOf(address(this));\n    borrowedToken.transfer(owner, borrowedTokenBalance);\n  }\n}\n",
  "sourcePath": "/Users/coburn/Compound/QuickBorrow/contracts/CompoundBorrower.sol",
  "compiler": {
    "name": "solc",
    "version": "0.4.24+commit.e67f0147.Emscripten.clang"
  },
  "schemaVersion": "2.0.1",
  "updatedAt": "2018-11-08T00:35:41.017Z"
}