{
  "contractName": "CompoundBorrower",
  "abi": [
    {
      "inputs": [
        {
          "name": "owner_",
          "type": "address"
        },
        {
          "name": "tokenToBorrow_",
          "type": "address"
        },
        {
          "name": "wethAddress_",
          "type": "address"
        },
        {
          "name": "moneyMarketAddress_",
          "type": "address"
        }
      ],
      "payable": false,
      "stateMutability": "nonpayable",
      "type": "constructor"
    },
    {
      "payable": true,
      "stateMutability": "payable",
      "type": "fallback"
    },
    {
      "anonymous": false,
      "inputs": [
        {
          "indexed": false,
          "name": "comone",
          "type": "string"
        }
      ],
      "name": "Please",
      "type": "event"
    },
    {
      "anonymous": false,
      "inputs": [
        {
          "indexed": false,
          "name": "val",
          "type": "uint256"
        }
      ],
      "name": "How",
      "type": "event"
    },
    {
      "constant": false,
      "inputs": [],
      "name": "yo",
      "outputs": [
        {
          "name": "",
          "type": "string"
        }
      ],
      "payable": false,
      "stateMutability": "nonpayable",
      "type": "function"
    },
    {
      "constant": false,
      "inputs": [
        {
          "name": "requestedAmount",
          "type": "uint256"
        }
      ],
      "name": "borrow",
      "outputs": [],
      "payable": false,
      "stateMutability": "nonpayable",
      "type": "function"
    },
    {
      "constant": false,
      "inputs": [],
      "name": "repay",
      "outputs": [],
      "payable": false,
      "stateMutability": "nonpayable",
      "type": "function"
    }
  ],
  "bytecode": "0x608060405234801561001057600080fd5b50604051608080610d938339810180604052810190808051906020019092919080519060200190929190805190602001909291908051906020019092919050505033600260006101000a81548173ffffffffffffffffffffffffffffffffffffffff021916908373ffffffffffffffffffffffffffffffffffffffff16021790555083600360006101000a81548173ffffffffffffffffffffffffffffffffffffffff021916908373ffffffffffffffffffffffffffffffffffffffff160217905550826000806101000a81548173ffffffffffffffffffffffffffffffffffffffff021916908373ffffffffffffffffffffffffffffffffffffffff16021790555081600460006101000a81548173ffffffffffffffffffffffffffffffffffffffff021916908373ffffffffffffffffffffffffffffffffffffffff16021790555080600560006101000a81548173ffffffffffffffffffffffffffffffffffffffff021916908373ffffffffffffffffffffffffffffffffffffffff16021790555050505050610beb806101a86000396000f300608060405260043610610057576000357c0100000000000000000000000000000000000000000000000000000000900463ffffffff168063402d8883146101ea578063607e60eb14610201578063c5ebeaec14610291575b60007ff74e8dbde4217ad68b9ed8b6b4df8ecb1ae4a152cd02e14cb5b36f4c0c67267f6040518080602001828103825260068152602001807f7468616e6b73000000000000000000000000000000000000000000000000000081525060200191505060405180910390a17f242bd9d2d622ed447b9a4644314c66f94f488f3c9b25294f025c5998253e99b9346040518082815260200191505060405180910390a17f242bd9d2d622ed447b9a4644314c66f94f488f3c9b25294f025c5998253e99b93073ffffffffffffffffffffffffffffffffffffffff16316040518082815260200191505060405180910390a1600460009054906101000a900473ffffffffffffffffffffffffffffffffffffffff1690508073ffffffffffffffffffffffffffffffffffffffff1663d0e30db06040518163ffffffff167c0100000000000000000000000000000000000000000000000000000000028152600401600060405180830381600087803b1580156101cf57600080fd5b505af11580156101e3573d6000803e3d6000fd5b5050505050005b3480156101f657600080fd5b506101ff6102be565b005b34801561020d57600080fd5b5061021661058a565b6040518080602001828103825283818151815260200191508051906020019080838360005b8381101561025657808201518184015260208101905061023b565b50505050905090810190601f1680156102835780820380516001836020036101000a031916815260200191505b509250505060405180910390f35b34801561029d57600080fd5b506102bc6004803603810190808035906020019092919050505061062f565b005b3373ffffffffffffffffffffffffffffffffffffffff16600260009054906101000a900473ffffffffffffffffffffffffffffffffffffffff1673ffffffffffffffffffffffffffffffffffffffff1614151561031a57600080fd5b600560009054906101000a900473ffffffffffffffffffffffffffffffffffffffff1673ffffffffffffffffffffffffffffffffffffffff1663abdb5ea86000809054906101000a900473ffffffffffffffffffffffffffffffffffffffff1660016040518363ffffffff167c0100000000000000000000000000000000000000000000000000000000028152600401808373ffffffffffffffffffffffffffffffffffffffff1673ffffffffffffffffffffffffffffffffffffffff16815260200182815260200192505050602060405180830381600087803b15801561040157600080fd5b505af1158015610415573d6000803e3d6000fd5b505050506040513d602081101561042b57600080fd5b810190808051906020019092919050505050600560009054906101000a900473ffffffffffffffffffffffffffffffffffffffff1673ffffffffffffffffffffffffffffffffffffffff1663f3fef3a3600460009054906101000a900473ffffffffffffffffffffffffffffffffffffffff167fffffffffffffffffffffffffffffffffffffffffffffffffffffffffffffffff6040518363ffffffff167c0100000000000000000000000000000000000000000000000000000000028152600401808373ffffffffffffffffffffffffffffffffffffffff1673ffffffffffffffffffffffffffffffffffffffff16815260200182815260200192505050602060405180830381600087803b15801561054457600080fd5b505af1158015610558573d6000803e3d6000fd5b505050506040513d602081101561056e57600080fd5b8101908080519060200190929190505050506105886107b8565b565b60607ff74e8dbde4217ad68b9ed8b6b4df8ecb1ae4a152cd02e14cb5b36f4c0c67267f6040518080602001828103825260068152602001807f706c65617365000000000000000000000000000000000000000000000000000081525060200191505060405180910390a16040805190810160405280600581526020017f6261636f6e000000000000000000000000000000000000000000000000000000815250905090565b3373ffffffffffffffffffffffffffffffffffffffff16600260009054906101000a900473ffffffffffffffffffffffffffffffffffffffff1673ffffffffffffffffffffffffffffffffffffffff1614151561068b57600080fd5b600560009054906101000a900473ffffffffffffffffffffffffffffffffffffffff1673ffffffffffffffffffffffffffffffffffffffff16634b8a35296000809054906101000a900473ffffffffffffffffffffffffffffffffffffffff16836040518363ffffffff167c0100000000000000000000000000000000000000000000000000000000028152600401808373ffffffffffffffffffffffffffffffffffffffff1673ffffffffffffffffffffffffffffffffffffffff16815260200182815260200192505050602060405180830381600087803b15801561077157600080fd5b505af1158015610785573d6000803e3d6000fd5b505050506040513d602081101561079b57600080fd5b8101908080519060200190929190505050506107b56107b8565b50565b600080600080600460009054906101000a900473ffffffffffffffffffffffffffffffffffffffff1693508373ffffffffffffffffffffffffffffffffffffffff166370a08231306040518263ffffffff167c0100000000000000000000000000000000000000000000000000000000028152600401808273ffffffffffffffffffffffffffffffffffffffff1673ffffffffffffffffffffffffffffffffffffffff168152602001915050602060405180830381600087803b15801561087e57600080fd5b505af1158015610892573d6000803e3d6000fd5b505050506040513d60208110156108a857600080fd5b810190808051906020019092919050505092508373ffffffffffffffffffffffffffffffffffffffff1663a9059cbb600360009054906101000a900473ffffffffffffffffffffffffffffffffffffffff16856040518363ffffffff167c0100000000000000000000000000000000000000000000000000000000028152600401808373ffffffffffffffffffffffffffffffffffffffff1673ffffffffffffffffffffffffffffffffffffffff16815260200182815260200192505050602060405180830381600087803b15801561098057600080fd5b505af1158015610994573d6000803e3d6000fd5b505050506040513d60208110156109aa57600080fd5b8101908080519060200190929190505050506000809054906101000a900473ffffffffffffffffffffffffffffffffffffffff1691508173ffffffffffffffffffffffffffffffffffffffff166370a08231306040518263ffffffff167c0100000000000000000000000000000000000000000000000000000000028152600401808273ffffffffffffffffffffffffffffffffffffffff1673ffffffffffffffffffffffffffffffffffffffff168152602001915050602060405180830381600087803b158015610a7b57600080fd5b505af1158015610a8f573d6000803e3d6000fd5b505050506040513d6020811015610aa557600080fd5b810190808051906020019092919050505090508173ffffffffffffffffffffffffffffffffffffffff1663a9059cbb600360009054906101000a900473ffffffffffffffffffffffffffffffffffffffff16836040518363ffffffff167c0100000000000000000000000000000000000000000000000000000000028152600401808373ffffffffffffffffffffffffffffffffffffffff1673ffffffffffffffffffffffffffffffffffffffff16815260200182815260200192505050602060405180830381600087803b158015610b7d57600080fd5b505af1158015610b91573d6000803e3d6000fd5b505050506040513d6020811015610ba757600080fd5b810190808051906020019092919050505050505050505600a165627a7a72305820abc34f57ed517ed9aaebbad713529c30d78c123d7bc4d3f4c132216dd340c2450029",
  "source": "pragma solidity ^0.4.24;\n\nimport \"./EIP20Interface.sol\";\nimport \"./WrappedEtherInterface.sol\";\nimport \"./MoneyMarketAccountInterface.sol\";\n\ncontract CompoundBorrower {\n  address borrowedTokenAddress;\n  address moneyMarketAddress;\n  address creator;\n  address owner;\n  address wethAddress;\n  MoneyMarketAccountInterface compoundMoneyMarket;\n\n  constructor (address owner_, address tokenToBorrow_, address wethAddress_, address moneyMarketAddress_) public {\n    creator = msg.sender;\n    owner = owner_;\n    borrowedTokenAddress = tokenToBorrow_;\n    wethAddress = wethAddress_;\n    compoundMoneyMarket = MoneyMarketAccountInterface(moneyMarketAddress_);\n  }\n\n  event Please(string comone);\n  event How(uint val);\n  function yo() public returns ( string ) {\n    emit Please(\"please\");\n    return \"bacon\";\n  }\n\n  // turn all received ether into weth and fund it to compound\n  function () payable public {\n    emit Please(\"thanks\");\n    emit How(msg.value);\n    emit How(address(this).balance);\n    WrappedEtherInterface weth = WrappedEtherInterface(wethAddress);\n    // weth.deposit or something to wrap\n    weth.deposit();\n    /* weth.deposit.value(20)(); */\n\n    /* uint wethBalance = weth.balanceOf(address(this)); */\n    /* weth.approve(moneyMarketAddress, uint(-1)); */\n    /* compoundMoneyMarket.supply(wethAddress, 10);//wethBalance); */\n  }\n\n  function borrow(uint requestedAmount) public {\n    require(creator == msg.sender);\n\n    compoundMoneyMarket.borrow(borrowedTokenAddress, requestedAmount);\n\n    // this contract will now hold borrowed tokens, sweep them to owner\n    giveTokensToOwner();\n  }\n\n  // this contract must receive the tokens to repay before this function will succeed\n  function repay() public {\n    require(creator == msg.sender);\n\n    compoundMoneyMarket.repayBorrow(borrowedTokenAddress, uint(1));\n    compoundMoneyMarket.withdraw(wethAddress, uint(-1));\n\n    giveTokensToOwner();\n    /* selfDestructIfEmpty(); and send to Owner*/\n  }\n\n  function giveTokensToOwner() private {\n    EIP20Interface weth = EIP20Interface(wethAddress);\n    uint wethBalance = weth.balanceOf(address(this));\n    weth.transfer(owner, wethBalance);\n\n    EIP20Interface borrowedToken = EIP20Interface(borrowedTokenAddress);\n    uint borrowedTokenBalance = borrowedToken.balanceOf(address(this));\n    borrowedToken.transfer(owner, borrowedTokenBalance);\n  }\n}\n",
  "sourcePath": "/Users/coburn/Compound/QuickBorrow/contracts/CompoundBorrower.sol",
  "compiler": {
    "name": "solc",
    "version": "0.4.24+commit.e67f0147.Emscripten.clang"
  },
  "schemaVersion": "2.0.1",
  "updatedAt": "2018-11-06T00:49:19.810Z"
}