{
  "contractName": "MoneyMarketAccountInterface",
  "abi": [
    {
      "constant": false,
      "inputs": [
        {
          "name": "asset",
          "type": "address"
        },
        {
          "name": "amount",
          "type": "uint256"
        }
      ],
      "name": "borrow",
      "outputs": [
        {
          "name": "",
          "type": "uint256"
        }
      ],
      "payable": false,
      "stateMutability": "nonpayable",
      "type": "function"
    },
    {
      "constant": false,
      "inputs": [
        {
          "name": "asset",
          "type": "address"
        },
        {
          "name": "amount",
          "type": "uint256"
        }
      ],
      "name": "supply",
      "outputs": [
        {
          "name": "",
          "type": "uint256"
        }
      ],
      "payable": false,
      "stateMutability": "nonpayable",
      "type": "function"
    },
    {
      "constant": false,
      "inputs": [
        {
          "name": "asset",
          "type": "address"
        },
        {
          "name": "requestedAmount",
          "type": "uint256"
        }
      ],
      "name": "withdraw",
      "outputs": [
        {
          "name": "",
          "type": "uint256"
        }
      ],
      "payable": false,
      "stateMutability": "nonpayable",
      "type": "function"
    },
    {
      "constant": false,
      "inputs": [
        {
          "name": "asset",
          "type": "address"
        },
        {
          "name": "amount",
          "type": "uint256"
        }
      ],
      "name": "repayBorrow",
      "outputs": [
        {
          "name": "",
          "type": "uint256"
        }
      ],
      "payable": false,
      "stateMutability": "nonpayable",
      "type": "function"
    }
  ],
  "bytecode": "0x608060405234801561001057600080fd5b50610237806100206000396000f300608060405260043610610062576000357c0100000000000000000000000000000000000000000000000000000000900463ffffffff1680634b8a352914610067578063abdb5ea8146100c8578063f2b9fdb814610129578063f3fef3a31461018a575b600080fd5b34801561007357600080fd5b506100b2600480360381019080803573ffffffffffffffffffffffffffffffffffffffff169060200190929190803590602001909291905050506101eb565b6040518082815260200191505060405180910390f35b3480156100d457600080fd5b50610113600480360381019080803573ffffffffffffffffffffffffffffffffffffffff169060200190929190803590602001909291905050506101f3565b6040518082815260200191505060405180910390f35b34801561013557600080fd5b50610174600480360381019080803573ffffffffffffffffffffffffffffffffffffffff169060200190929190803590602001909291905050506101fb565b6040518082815260200191505060405180910390f35b34801561019657600080fd5b506101d5600480360381019080803573ffffffffffffffffffffffffffffffffffffffff16906020019092919080359060200190929190505050610203565b6040518082815260200191505060405180910390f35b600092915050565b600092915050565b600092915050565b6000929150505600a165627a7a723058202c040cfc6aa267afc686e258b73aec2301520e2af44536759e634c0cd0f9251b0029",
  "source": "pragma solidity ^0.4.24;\n\ncontract MoneyMarketAccountInterface {\n  function borrow(address asset, uint amount) public returns (uint) {}\n\n  function supply(address asset, uint amount) public returns (uint) {}\n\n  function withdraw(address asset, uint requestedAmount) public returns (uint) {}\n\n  function repayBorrow(address asset, uint amount) public returns (uint) {}\n}\n",
  "sourcePath": "/Users/coburn/Compound/QuickBorrow/contracts/MoneyMarketAccountInterface.sol",
  "compiler": {
    "name": "solc",
    "version": "0.4.24+commit.e67f0147.Emscripten.clang"
  },
  "schemaVersion": "2.0.1",
  "updatedAt": "2018-11-02T17:41:32.586Z"
}